:020000040800F2
:10000000FCFF042061070008C1020008C1020008CB
:10001000C1020008C1020008C1020008C1020008B4
:10002000C1020008C1020008C1020008C1020008A4
:10003000C1020008C1020008C1020008C102000894
:10004000C1020008C1020008C1020008C102000884
:10005000C1020008C1020008C1020008C102000874
:10006000C1020008C1020008C1020008C102000864
:10007000C1020008C1020008C1020008C102000854
:10008000C1020008C1020008C1020008C102000844
:10009000C1020008C1020008C1020008C102000834
:1000A000C1020008C1020008C1020008C102000824
:1000B000C1020008C1020008C1020008C102000814
:1000C000C1020008C1020008C1020008C102000804
:1000D000C1020008C1020008C1020008C1020008F4
:1000E000C1020008C1020008C1020008C1020008E4
:1000F000C1020008C1020008C1020008C1020008D4
:10010000C1020008C1020008C1020008C1020008C3
:10011000C1020008C1020008C1020008C1020008B3
:10012000C1020008C1020008C1020008C1020008A3
:10013000C1020008C1020008C1020008C102000893
:10014000C1020008C1020008C1020008C102000883
:10015000C1020008C1020008C1020008C102000873
:10016000C1020008C1020008C1020008C102000863
:10017000C1020008C1020008C1020008C102000853
:10018000C1020008C1020008C1020008C102000843
:10019000C1020008C1020008C1020008C102000833
:1001A000C1020008C1020008C1020008C102000823
:1001B000C1020008C1020008C1020008C102000813
:1001C000C1020008C102000881B00F48006840F079
:1001D00001010D48016000210C4801600A480168D6
:1001E0000B480140084801600A490B480160064875
:1001F00001686FF480200140034801600021074836
:10020000016001B0704700BF00380240083802406A
:10021000FFFFF6FE10300024043802400C38024084
:1002200081B01048006840F080510E4801600E48CF
:10023000006840F480310C4801600C48006800F40C
:10024000803000B9F9E70848006840F400310648FA
:1002500001600648006800F4003000B9F9E701B019
:10026000704700BF403802400070004004700040FA
:1002700081B01CF8019B0BF8019BBBEB0A0FF8D176
:1002800001B0704781B04FF000094FF0000CBDEB9A
:100290000A0F04DCBDEB0B0F01DBD446EA464BF83A
:1002A000049BBBEB0A0FFAD1BCEB0A0F05DDE2465B
:1002B000D9F800B00BF1040BF1E701B07047FFFF74
:1002C00081B0FEE701B0704781B04EF68850CEF2A3
:1002D0000000016841F47001016000BF00BF00BF71
:1002E00000BF00BF00BF00BF00BF00BFF1EE100A9B
:1002F00040F44000E1EE100A01B0704781B00449BB
:100300000448016004490548016001B0704700BF1E
:10031000803E0000000000200300000004000020D8
:1003200082B0CDF800E08B4A8B4B8C4C8C4D8D4EBF
:10033000FFF74AFF8C48006840F080518A4801600E
:100340008A48006840F44041884801608848006855
:1003500040F4807186480160032D40F0508085484C
:10036000864206D98248006840F007018048016053
:1003700044E08148864206D97D48006840F0060185
:100380007B4801603AE07D48864206D9784800689B
:1003900040F005017648016030E07948864206D990
:1003A0007348006840F004017148016026E0754818
:1003B000864206D96E48006840F003016C4801602F
:1003C0001CE04EF66020864206D96948006840F07D
:1003D00002016748016011E047F23050864206D9B9
:1003E0006348006840F001016148016006E0604830
:1003F00001686FF00F0001405D48016053E1022D7C
:1004000040F05A806048864206D95948006840F05A
:100410000801574801604EE05C48864206D95448BE
:10042000006840F007015248016044E058488642A5
:1004300006D94F48006840F006014D4801603AE097
:100440004F48864206D94A48006840F005014848AE
:10045000016030E04F48864206D94548006840F0C8
:1004600004014348016026E04B48864206D94048D3
:10047000006840F003013E4801601CE04BF680300C
:10048000864206D93A48006840F0020138480160C7
:1004900011E045F6C050864206D93548006840F064
:1004A00001013348016006E0314801686FF00F0038
:1004B00001402F480160F6E0012D40F09780374859
:1004C000864206D92A48006840F0090128480160A0
:1004D0008BE03348864206D92548006840F0080181
:1004E0002348016081E02F48864206D920480068F1
:1004F00040F007011E48016077E02B48864206D98C
:100500001B48006840F00601194801606DE027486B
:10051000864206D91648006840F00501144801607B
:1005200063E02348864206D91148006840F0040180
:100530000F48016059E01F48864206D90C48006800
:1005400040F003010A4801604FE04AF6E03086427D
:1005500039D931E0810000001030000400000000B3
:1005600003000000803E0000403802400070004060
:10057000003C02405034030020BF0200F04902005A
:10058000C0D40100905F010000EE02004090020024
:10059000803202000077010040190100700503005D
:1005A00080AF020090590200A0030200B0AD01002C
:1005B000C0570100D00101005F48006840F002010F
:1005C0005D48016011E045F2F050864206D95A4874
:1005D000006840F001015848016006E05648016893
:1005E0006FF00F000140544801605CE0002D40F0C6
:1005F0005A805248864206D94F48006840F00801A8
:100600004D4801604FE04E48864206D94A4800688E
:1006100040F007014848016045E04A48864206D953
:100620004548006840F00601434801603BE0464809
:10063000864206D94048006840F005013E48016006
:1006400031E04248864206D93B48006840F0040148
:100650003948016027E04EF66020864206D93648C8
:10066000006840F00301344801601CE049F6404056
:10067000864206D93048006840F002012E480160E9
:1006800011E044F62060864206D92B48006840F00D
:1006900001012948016006E0274801686FF00F005A
:1006A000014025480160FFF7BBFD29480360294848
:1006B0000460294802EA00012848016002F00100B4
:1006C00040B121462548006800F00200002800D112
:1006D000F8E700E0214602F4803048B11F48006886
:1006E00000F4003000B9F9E701920A46019902E0EE
:1006F00001911146019A01F0807070B117480068AD
:1007000040F080711548016011461448006800F0FF
:10071000007000B9F9E70A46FFE70E48006800F0EC
:100720000C01900000F00C00814200D0F5E7DDF8EC
:1007300000E002B0704700BF003C024000710200C0
:10074000E0220200C0D40100A08601008038010030
:100750000438024008380240FFFF0F000038024012
:10076000FFF7DEFDFFF7B0FD00F004F8FFF7C6FD70
:10077000FEE7FFFF00B5DFF810B0DFF810A0FFF7CD
:1007800081FD00BD704700BF000000200800002070
:00000001FF
